:020000042000DA
:1000000020466C6173686C6F61646572202D2049B5
:100010006E69742829200D0A0000000010B500F058
:10002000AFF800F0CBF800F02BF900F095F9802143
:100030000448490100F0D4F90348182100F0D8F928
:10004000002010BD000C02400000002020466C6122
:1000500073686C6F61646572202D20556E496E69FE
:10006000742829200D0A0000802110B50448490198
:1000700000F0B6F903481A2100F0BAF9002010BDCB
:10008000000C02404C00002020466C6173686C6FCD
:10009000616465722D204572617365536563746F89
:1000A000722829200D0A0000802110B5044849015A
:1000B00000F096F903481E2100F09AF9002010BDC7
:1000C000000C02408800002020466C6173686C6F51
:1000D000616465722D50726F6772616D5061676502
:1000E0002829200D0A000000802110B5044849018C
:1000F00000F076F903481D2100F07AF9002010BDC8
:10010000000C0240C800002020466C6173686C6FD0
:10011000616465722D426C616E6B436865636B2030
:100120000D0A0000802110B50448490100F058F97B
:1001300003481A2100F05CF9002010BD000C0240B9
:1001400008010020F023034A1B0411680B431360CD
:100150007047C04688ED00E0E023064ADB0000025D
:1001600011681840044B0B401843044B18431060AF
:100170007047C0460CED00E0FFF800000000FA05F3
:10018000E0230C4ADB00116810B50B431360032019
:10019000FFF7E2FF8022084BD201596C07200A4387
:1001A0005A648022196C52050A431A64FFF7D4FF7F
:1001B00010BDC046003C0240003802408022284B5F
:1001C0005205196C30B50A431A64264A264811684C
:1001D000264D0140116080211068C9010143116062
:1001E0008022196852020A4300211A60204A214CD9
:1001F0001160214902205960012111601F4A043118
:1002000011709A682A409A60E022996852010A4364
:100210009A609A6822409A60E022996812020A4322
:10022000F0219A609A688A439A609A68ED399A60D8
:100230009A688A439A609A6810439860996829403E
:100240009960A0219A684901114399609A682240F7
:100250009A608022996812020A439A6030BDC046B3
:100260000038024000700040FFBFFFFFFFE3FFFFC8
:1002700060004742FF1FFFFF04284007003C024088
:1002800008202C4A30B5136B2B4C034313632B4BC4
:100290002B4D996821409960596829405960D96867
:1002A00002252140D96019680C408021490421436E
:1002B000196001230C24116B0B431363214B9968C4
:1002C000A143214399605968A9435960D9686D19C0
:1002D000A1432943D9601968A14308431860F0205D
:1002E000196A81430800802101431962136B164982
:1002F0001D431563C022154B9203986808400243C2
:100300009A605A68124802405A608022D8685203A4
:1003100008400243DA601A681140802292030A43BF
:100320001A600C495A6A1140802212010A435A622B
:1003300030BDC04600380240FFFFFFFC000C024009
:10034000FFEFFFFF00000240FFFFCFFF0008024069
:10035000FFFBFFFFFFF0FFFF80231A4A1B03116C16
:1003600019480B431364194BD9680140C020D96068
:100370001969800101401961196915481961D96825
:100380000140D9600C21D8680143D96059691148EE
:10039000014059615969596192680F4A0F499A6041
:1003A0001A690A402A211A615A698A435A61082245
:1003B00059690A435A618022D96892010A43DA6076
:1003C0007047C04600380240FFDFFFFF004C00408E
:1003D000F369FFFFFFFCFFFF47100000FFB7FFFFBF
:1003E00043690B40994200D10904816170470000C4
:1003F000402210B5054B4118884200D110BD1C6841
:100400001442FCD0047801305C60F5E7004C0040F9
:100410000A4BC046C046C046C046C046C046C0465D
:10042000C046C046C046C046C046013B002BF0D186
:10043000034B1A68501C18607047C0462526000000
:100440009C04002070B50400FFF7E2FF631C5A1EF5
:1004500093410500E418FFF7DBFF401BA04200D3E7
:1004600070BDC046F7E70000000000000000010278
:10047000030406070809000000000102030400004D
:100480000068890920546573746520466C6173683F
:0A0490006C6F61646572200D0A00B4
:1004A000010151535049000000000000000000000D
:1004B000000000000000000000000000000000003C
:1004C000000000000000000000000000000000002C
:1004D000000000000000000000000000000000001C
:1004E000000000000000000000000000000000000C
:1004F00000000000000000000000000000000000FC
:1005000000000000000000000000000000000000EB
:1005100000000000000000000000000000000000DB
:100520000000010000000090000000010002000037
:1005300000000000FF0000006400000070170000D1
:100540000040000000000000000001000000010069
:100550000000020000000200FFFFFFFFFFFFFFFF9F
:04000005200000E9EE
:00000001FF
